{
  "_format": "hh-sol-artifact-1",
  "contractName": "P2PLending",
  "sourceName": "contracts/P2PLending.sol",
  "abi": [
    {
      "inputs": [
        {
          "internalType": "contract IERC20",
          "name": "_token",
          "type": "address"
        }
      ],
      "stateMutability": "nonpayable",
      "type": "constructor"
    },
    {
      "anonymous": false,
      "inputs": [
        {
          "indexed": false,
          "internalType": "uint256",
          "name": "loanId",
          "type": "uint256"
        },
        {
          "indexed": false,
          "internalType": "uint256",
          "name": "lateFee",
          "type": "uint256"
        }
      ],
      "name": "LateFeePaid",
      "type": "event"
    },
    {
      "anonymous": false,
      "inputs": [
        {
          "indexed": false,
          "internalType": "uint256",
          "name": "loanId",
          "type": "uint256"
        },
        {
          "indexed": true,
          "internalType": "address",
          "name": "borrower",
          "type": "address"
        }
      ],
      "name": "LoanAccepted",
      "type": "event"
    },
    {
      "anonymous": false,
      "inputs": [
        {
          "indexed": false,
          "internalType": "uint256",
          "name": "loanId",
          "type": "uint256"
        },
        {
          "indexed": true,
          "internalType": "address",
          "name": "lender",
          "type": "address"
        },
        {
          "indexed": false,
          "internalType": "uint256",
          "name": "amount",
          "type": "uint256"
        },
        {
          "indexed": false,
          "internalType": "uint256",
          "name": "interestRate",
          "type": "uint256"
        },
        {
          "indexed": false,
          "internalType": "uint256",
          "name": "dueDate",
          "type": "uint256"
        }
      ],
      "name": "LoanCreated",
      "type": "event"
    },
    {
      "anonymous": false,
      "inputs": [
        {
          "indexed": false,
          "internalType": "uint256",
          "name": "loanId",
          "type": "uint256"
        },
        {
          "indexed": false,
          "internalType": "uint256",
          "name": "amount",
          "type": "uint256"
        }
      ],
      "name": "LoanRepaid",
      "type": "event"
    },
    {
      "inputs": [
        {
          "internalType": "uint256",
          "name": "loanId",
          "type": "uint256"
        }
      ],
      "name": "acceptLoan",
      "outputs": [],
      "stateMutability": "nonpayable",
      "type": "function"
    },
    {
      "inputs": [
        {
          "internalType": "uint256",
          "name": "_amount",
          "type": "uint256"
        },
        {
          "internalType": "uint256",
          "name": "_interestRate",
          "type": "uint256"
        },
        {
          "internalType": "uint256",
          "name": "_dueDate",
          "type": "uint256"
        },
        {
          "internalType": "uint256",
          "name": "_lateFeeRate",
          "type": "uint256"
        }
      ],
      "name": "createLoan",
      "outputs": [],
      "stateMutability": "nonpayable",
      "type": "function"
    },
    {
      "inputs": [
        {
          "internalType": "uint256",
          "name": "loanId",
          "type": "uint256"
        }
      ],
      "name": "getLoanDetails",
      "outputs": [
        {
          "internalType": "uint256",
          "name": "",
          "type": "uint256"
        },
        {
          "internalType": "uint256",
          "name": "",
          "type": "uint256"
        },
        {
          "internalType": "uint256",
          "name": "",
          "type": "uint256"
        },
        {
          "internalType": "uint256",
          "name": "",
          "type": "uint256"
        },
        {
          "internalType": "address",
          "name": "",
          "type": "address"
        },
        {
          "internalType": "address",
          "name": "",
          "type": "address"
        },
        {
          "internalType": "bool",
          "name": "",
          "type": "bool"
        }
      ],
      "stateMutability": "view",
      "type": "function"
    },
    {
      "inputs": [],
      "name": "loanCounter",
      "outputs": [
        {
          "internalType": "uint256",
          "name": "",
          "type": "uint256"
        }
      ],
      "stateMutability": "view",
      "type": "function"
    },
    {
      "inputs": [
        {
          "internalType": "uint256",
          "name": "",
          "type": "uint256"
        }
      ],
      "name": "loans",
      "outputs": [
        {
          "internalType": "uint256",
          "name": "loanId",
          "type": "uint256"
        },
        {
          "internalType": "uint256",
          "name": "amount",
          "type": "uint256"
        },
        {
          "internalType": "uint256",
          "name": "interestRate",
          "type": "uint256"
        },
        {
          "internalType": "uint256",
          "name": "dueDate",
          "type": "uint256"
        },
        {
          "internalType": "uint256",
          "name": "lateFeeRate",
          "type": "uint256"
        },
        {
          "internalType": "address",
          "name": "lender",
          "type": "address"
        },
        {
          "internalType": "address",
          "name": "borrower",
          "type": "address"
        },
        {
          "internalType": "bool",
          "name": "isRepaid",
          "type": "bool"
        }
      ],
      "stateMutability": "view",
      "type": "function"
    },
    {
      "inputs": [],
      "name": "owner",
      "outputs": [
        {
          "internalType": "address",
          "name": "",
          "type": "address"
        }
      ],
      "stateMutability": "view",
      "type": "function"
    },
    {
      "inputs": [
        {
          "internalType": "uint256",
          "name": "loanId",
          "type": "uint256"
        }
      ],
      "name": "repayLoan",
      "outputs": [],
      "stateMutability": "nonpayable",
      "type": "function"
    },
    {
      "inputs": [],
      "name": "token",
      "outputs": [
        {
          "internalType": "contract IERC20",
          "name": "",
          "type": "address"
        }
      ],
      "stateMutability": "view",
      "type": "function"
    }
  ],
  "bytecode": "0x608060405234801561001057600080fd5b50604051611b10380380611b108339818101604052810190610032919061012e565b806000806101000a81548173ffffffffffffffffffffffffffffffffffffffff021916908373ffffffffffffffffffffffffffffffffffffffff16021790555033600260006101000a81548173ffffffffffffffffffffffffffffffffffffffff021916908373ffffffffffffffffffffffffffffffffffffffff1602179055505061015b565b600080fd5b600073ffffffffffffffffffffffffffffffffffffffff82169050919050565b60006100e9826100be565b9050919050565b60006100fb826100de565b9050919050565b61010b816100f0565b811461011657600080fd5b50565b60008151905061012881610102565b92915050565b600060208284031215610144576101436100b9565b5b600061015284828501610119565b91505092915050565b6119a68061016a6000396000f3fe608060405234801561001057600080fd5b50600436106100885760003560e01c8063adfbe22f1161005b578063adfbe22f1461011b578063b9fae65014610137578063e1ec3c6814610153578063fc0c546a1461018a57610088565b806334d9289e1461008d57806366877b8d146100ab5780638da5cb5b146100e1578063ab7b1c89146100ff575b600080fd5b6100956101a8565b6040516100a29190611015565b60405180910390f35b6100c560048036038101906100c09190611061565b6101ae565b6040516100d897969594939291906110ea565b60405180910390f35b6100e96103db565b6040516100f69190611159565b60405180910390f35b61011960048036038101906101149190611061565b610401565b005b61013560048036038101906101309190611061565b6107d5565b005b610151600480360381019061014c9190611174565b610b50565b005b61016d60048036038101906101689190611061565b610ed0565b6040516101819897969594939291906111db565b60405180910390f35b610192610f65565b60405161019f91906112b8565b60405180910390f35b60015481565b600080600080600080600087600073ffffffffffffffffffffffffffffffffffffffff163373ffffffffffffffffffffffffffffffffffffffff1603610229576040517f08c379a000000000000000000000000000000000000000000000000000000000815260040161022090611330565b60405180910390fd5b80600360008381526020019081526020016000206000015414610281576040517f08c379a00000000000000000000000000000000000000000000000000000000081526004016102789061139c565b60405180910390fd5b6000600360008b81526020019081526020016000206040518061010001604052908160008201548152602001600182015481526020016002820154815260200160038201548152602001600482015481526020016005820160009054906101000a900473ffffffffffffffffffffffffffffffffffffffff1673ffffffffffffffffffffffffffffffffffffffff1673ffffffffffffffffffffffffffffffffffffffff1681526020016006820160009054906101000a900473ffffffffffffffffffffffffffffffffffffffff1673ffffffffffffffffffffffffffffffffffffffff1673ffffffffffffffffffffffffffffffffffffffff1681526020016006820160149054906101000a900460ff161515151581525050905080602001518160400151826060015183608001518460a001518560c001518660e0015198509850985098509850985098505050919395979092949650565b600260009054906101000a900473ffffffffffffffffffffffffffffffffffffffff1681565b80600073ffffffffffffffffffffffffffffffffffffffff163373ffffffffffffffffffffffffffffffffffffffff1603610471576040517f08c379a000000000000000000000000000000000000000000000000000000000815260040161046890611330565b60405180910390fd5b806003600083815260200190815260200160002060000154146104c9576040517f08c379a00000000000000000000000000000000000000000000000000000000081526004016104c09061139c565b60405180910390fd5b60006003600084815260200190815260200160002090508060060160009054906101000a900473ffffffffffffffffffffffffffffffffffffffff1673ffffffffffffffffffffffffffffffffffffffff163373ffffffffffffffffffffffffffffffffffffffff1614610572576040517f08c379a000000000000000000000000000000000000000000000000000000000815260040161056990611408565b60405180910390fd5b8060060160149054906101000a900460ff16156105c4576040517f08c379a00000000000000000000000000000000000000000000000000000000081526004016105bb90611474565b60405180910390fd5b60006064826002015483600101546105dc91906114c3565b6105e69190611534565b82600101546105f59190611565565b9050816003015442111561067057600060648360040154846001015461061b91906114c3565b6106259190611534565b905080826106339190611565565b91507f5efd91f1c5bfda34162b6f5295c0e75da86785fb877e5ecf0c57a9b7142925898582604051610666929190611599565b60405180910390a1505b600033905060008054906101000a900473ffffffffffffffffffffffffffffffffffffffff1673ffffffffffffffffffffffffffffffffffffffff166323b872dd828560050160009054906101000a900473ffffffffffffffffffffffffffffffffffffffff16856040518463ffffffff1660e01b81526004016106f6939291906115c2565b6020604051808303816000875af1158015610715573d6000803e3d6000fd5b505050506040513d601f19601f820116820180604052508101906107399190611625565b610778576040517f08c379a000000000000000000000000000000000000000000000000000000000815260040161076f906116c4565b60405180910390fd5b60018360060160146101000a81548160ff0219169083151502179055507f040cee90ee4799897c30ca04e5feb6fa43dbba9b6d084b4b257cdafd84ba013e85836040516107c6929190611599565b60405180910390a15050505050565b80600073ffffffffffffffffffffffffffffffffffffffff163373ffffffffffffffffffffffffffffffffffffffff1603610845576040517f08c379a000000000000000000000000000000000000000000000000000000000815260040161083c90611330565b60405180910390fd5b8060036000838152602001908152602001600020600001541461089d576040517f08c379a00000000000000000000000000000000000000000000000000000000081526004016108949061139c565b60405180910390fd5b6000600360008481526020019081526020016000209050600073ffffffffffffffffffffffffffffffffffffffff168160060160009054906101000a900473ffffffffffffffffffffffffffffffffffffffff1673ffffffffffffffffffffffffffffffffffffffff1614610947576040517f08c379a000000000000000000000000000000000000000000000000000000000815260040161093e90611730565b60405180910390fd5b3373ffffffffffffffffffffffffffffffffffffffff168160050160009054906101000a900473ffffffffffffffffffffffffffffffffffffffff1673ffffffffffffffffffffffffffffffffffffffff16036109d9576040517f08c379a00000000000000000000000000000000000000000000000000000000081526004016109d09061179c565b60405180910390fd5b338160060160006101000a81548173ffffffffffffffffffffffffffffffffffffffff021916908373ffffffffffffffffffffffffffffffffffffffff16021790555060008054906101000a900473ffffffffffffffffffffffffffffffffffffffff1673ffffffffffffffffffffffffffffffffffffffff1663a9059cbb3383600101546040518363ffffffff1660e01b8152600401610a7b9291906117bc565b6020604051808303816000875af1158015610a9a573d6000803e3d6000fd5b505050506040513d601f19601f82011682018060405250810190610abe9190611625565b610afd576040517f08c379a0000000000000000000000000000000000000000000000000000000008152600401610af490611857565b60405180910390fd5b3373ffffffffffffffffffffffffffffffffffffffff167f3ad02261725390771e704d06848ed8e414d628daf1b8dbffe111f437c848d62084604051610b439190611015565b60405180910390a2505050565b600073ffffffffffffffffffffffffffffffffffffffff163373ffffffffffffffffffffffffffffffffffffffff1603610bbf576040517f08c379a0000000000000000000000000000000000000000000000000000000008152600401610bb690611330565b60405180910390fd5b600033905060008054906101000a900473ffffffffffffffffffffffffffffffffffffffff1673ffffffffffffffffffffffffffffffffffffffff166323b872dd8230886040518463ffffffff1660e01b8152600401610c21939291906115c2565b6020604051808303816000875af1158015610c40573d6000803e3d6000fd5b505050506040513d601f19601f82011682018060405250810190610c649190611625565b610ca3576040517f08c379a0000000000000000000000000000000000000000000000000000000008152600401610c9a906118c3565b60405180910390fd5b60016000815480929190610cb6906118e3565b9190505550610cc3610f89565b6001548160000181815250508581602001818152505084816040018181525050838160600181815250508281608001818152505060008160c0019073ffffffffffffffffffffffffffffffffffffffff16908173ffffffffffffffffffffffffffffffffffffffff168152505060008160e0019015159081151581525050338160a0019073ffffffffffffffffffffffffffffffffffffffff16908173ffffffffffffffffffffffffffffffffffffffff168152505080600360006001548152602001908152602001600020600082015181600001556020820151816001015560408201518160020155606082015181600301556080820151816004015560a08201518160050160006101000a81548173ffffffffffffffffffffffffffffffffffffffff021916908373ffffffffffffffffffffffffffffffffffffffff16021790555060c08201518160060160006101000a81548173ffffffffffffffffffffffffffffffffffffffff021916908373ffffffffffffffffffffffffffffffffffffffff16021790555060e08201518160060160146101000a81548160ff0219169083151502179055509050503373ffffffffffffffffffffffffffffffffffffffff167fb2cca1719ad611d325136b9c9a4357f412d33694d93c60d4c1b6e922d524cf59600154888888604051610ec0949392919061192b565b60405180910390a2505050505050565b60036020528060005260406000206000915090508060000154908060010154908060020154908060030154908060040154908060050160009054906101000a900473ffffffffffffffffffffffffffffffffffffffff16908060060160009054906101000a900473ffffffffffffffffffffffffffffffffffffffff16908060060160149054906101000a900460ff16905088565b60008054906101000a900473ffffffffffffffffffffffffffffffffffffffff1681565b6040518061010001604052806000815260200160008152602001600081526020016000815260200160008152602001600073ffffffffffffffffffffffffffffffffffffffff168152602001600073ffffffffffffffffffffffffffffffffffffffff1681526020016000151581525090565b6000819050919050565b61100f81610ffc565b82525050565b600060208201905061102a6000830184611006565b92915050565b600080fd5b61103e81610ffc565b811461104957600080fd5b50565b60008135905061105b81611035565b92915050565b60006020828403121561107757611076611030565b5b60006110858482850161104c565b91505092915050565b600073ffffffffffffffffffffffffffffffffffffffff82169050919050565b60006110b98261108e565b9050919050565b6110c9816110ae565b82525050565b60008115159050919050565b6110e4816110cf565b82525050565b600060e0820190506110ff600083018a611006565b61110c6020830189611006565b6111196040830188611006565b6111266060830187611006565b61113360808301866110c0565b61114060a08301856110c0565b61114d60c08301846110db565b98975050505050505050565b600060208201905061116e60008301846110c0565b92915050565b6000806000806080858703121561118e5761118d611030565b5b600061119c8782880161104c565b94505060206111ad8782880161104c565b93505060406111be8782880161104c565b92505060606111cf8782880161104c565b91505092959194509250565b6000610100820190506111f1600083018b611006565b6111fe602083018a611006565b61120b6040830189611006565b6112186060830188611006565b6112256080830187611006565b61123260a08301866110c0565b61123f60c08301856110c0565b61124c60e08301846110db565b9998505050505050505050565b6000819050919050565b600061127e6112796112748461108e565b611259565b61108e565b9050919050565b600061129082611263565b9050919050565b60006112a282611285565b9050919050565b6112b281611297565b82525050565b60006020820190506112cd60008301846112a9565b92915050565b600082825260208201905092915050565b7f5a65726f2061646472657373206e6f7420616c6c6f7765640000000000000000600082015250565b600061131a6018836112d3565b9150611325826112e4565b602082019050919050565b600060208201905081810360008301526113498161130d565b9050919050565b7f4c6f616e20646f6573206e6f7420657869737400000000000000000000000000600082015250565b60006113866013836112d3565b915061139182611350565b602082019050919050565b600060208201905081810360008301526113b581611379565b9050919050565b7f4f6e6c7920626f72726f7765722063616e207265706179000000000000000000600082015250565b60006113f26017836112d3565b91506113fd826113bc565b602082019050919050565b60006020820190508181036000830152611421816113e5565b9050919050565b7f4c6f616e20616c72656164792072657061696400000000000000000000000000600082015250565b600061145e6013836112d3565b915061146982611428565b602082019050919050565b6000602082019050818103600083015261148d81611451565b9050919050565b7f4e487b7100000000000000000000000000000000000000000000000000000000600052601160045260246000fd5b60006114ce82610ffc565b91506114d983610ffc565b92508282026114e781610ffc565b915082820484148315176114fe576114fd611494565b5b5092915050565b7f4e487b7100000000000000000000000000000000000000000000000000000000600052601260045260246000fd5b600061153f82610ffc565b915061154a83610ffc565b92508261155a57611559611505565b5b828204905092915050565b600061157082610ffc565b915061157b83610ffc565b925082820190508082111561159357611592611494565b5b92915050565b60006040820190506115ae6000830185611006565b6115bb6020830184611006565b9392505050565b60006060820190506115d760008301866110c0565b6115e460208301856110c0565b6115f16040830184611006565b949350505050565b611602816110cf565b811461160d57600080fd5b50565b60008151905061161f816115f9565b92915050565b60006020828403121561163b5761163a611030565b5b600061164984828501611610565b91505092915050565b7f546f6b656e207472616e7366657220666f722072657061796d656e742066616960008201527f6c65640000000000000000000000000000000000000000000000000000000000602082015250565b60006116ae6023836112d3565b91506116b982611652565b604082019050919050565b600060208201905081810360008301526116dd816116a1565b9050919050565b7f4c6f616e20616c72656164792061636365707465640000000000000000000000600082015250565b600061171a6015836112d3565b9150611725826116e4565b602082019050919050565b600060208201905081810360008301526117498161170d565b9050919050565b7f4c656e6465722063616e6e6f7420616363657074206f776e206c6f616e000000600082015250565b6000611786601d836112d3565b915061179182611750565b602082019050919050565b600060208201905081810360008301526117b581611779565b9050919050565b60006040820190506117d160008301856110c0565b6117de6020830184611006565b9392505050565b7f546f6b656e207472616e7366657220746f20626f72726f776572206661696c6560008201527f6400000000000000000000000000000000000000000000000000000000000000602082015250565b60006118416021836112d3565b915061184c826117e5565b604082019050919050565b6000602082019050818103600083015261187081611834565b9050919050565b7f546f6b656e207472616e73666572206661696c65640000000000000000000000600082015250565b60006118ad6015836112d3565b91506118b882611877565b602082019050919050565b600060208201905081810360008301526118dc816118a0565b9050919050565b60006118ee82610ffc565b91507fffffffffffffffffffffffffffffffffffffffffffffffffffffffffffffffff82036119205761191f611494565b5b600182019050919050565b60006080820190506119406000830187611006565b61194d6020830186611006565b61195a6040830185611006565b6119676060830184611006565b9594505050505056fea264697066735822122072b283c76b2d8bf365205421db35b12de69ad42722ffd9eb43af217ee8d4753b64736f6c634300081b0033",
  "linkReferences": {},
  "deployedLinkReferences": {}
}